S01400005450344D6963726F636869702E737265639A
S11300000C9434000C9451000C9451000C94510045
S11300100C9451000C9451000C9451000C94510018
S11300200C9451000C9451000C9451000C94510008
S11300300C9451000C9451000C9451000C945100F8
S11300400C9451000C9451000C94BC000C9451007D
S11300500C9451000C9451000C9451000C945100D8
S11300600C9451000C94510011241FBECFEFD8E022
S1130070DEBFCDBF11E0A0E0B1E0EEECF3E002C0E2
S113008005900D92AC3FB107D9F722E0ACEFB1E097
S113009001C01D92A030B207E1F70E944B010C94FD
S11300A0E5010C94000087B1877F87B9EEE7F0E0A3
S11300B0808188608083ECE7F0E0808183668083C0
S11300C0EAE7F0E0808187688083808180648083B0
S11300D0089580917A0084FFFCCF80917900809309
S11300E0FC01EAE7F0E08081806480838091FC0178
S11300F0089584B1866284B9E1E8F0E08081846087
S11301008083E0E8F0E08081816F80838FEF90E06E
S1130110909389008093880090938B0080938A0049
S11301208FEF8093FD010895873441F0823519F0F3
S1130130823479F409C06093FD01089570E07093EE
S11301408B0060938A00089570E070938900609337
S1130150880008958091FD0190E020918400309101
S113016085008217930720F485B1806285B90895CC
S113017085B18F7D85B908951F920F920FB60F92A6
S113018011242F933F934F935F936F937F938F9398
S11301909F93AF93BF93EF93FF930E94C301809308
S11301A0FF018091FF01823561F08091FF01873466
S11301B041F08091FF01823421F08091FF01833569
S11301C019F58091FF018093FE018091FF0187342E
S11301D071F018F4823481F04DC0823519F0833502
S11301E081F048C080E091E00E94C60143C085E0F0
S11301F091E00E94C6013EC08BE091E00E94C601DE
S113020039C00E94D50136C08091FF01823761F068
S11302108091FF01873641F08091FF01823621F001
S11302208091FF01833721F58091FF0180528093F3
S1130230FE018091FF01873671F018F4823681F057
S113024019C0823719F0833781F014C080E091E03F
S11302500E94C6010FC085E091E00E94C6010AC059
S11302608BE091E00E94C60105C00E94D50102C046
S11302700E94DC01FF91EF91BF91AF919F918F910B
S11302807F916F915F914F913F912F910F900FBE8E
S11302900F901F9018950E94B00178940E94BA01A3
S11302A00E9453000E9479000E946900682F809187
S11302B0FE010E9494000E94AA00F6CF1092C10091
S11302C096E09093C2001092C5008093C4000895F4
S11302D0E1ECF0E08081886080830895E1ECF0E057
S11302E08081806180830895E1ECF0E08081806802
S11302F0808308958091C00085FFFCCF089580938A
S1130300C6000895EF92FF920F931F93CF937C0141
S1130310C0E007C00E947A01F80180810E947F0139
S1130320CF5F87010C0F111DF80180818111F2CF7D
S1130330CF911F910F91FF90EF90089580E191E08C
S11303400E9482010E947A0108950E9482010E9403
S11303507A018DE891E00E9482010E947A01089559
S113036087E60E945E010E9468010E946E010E945D
S11303707401089581E991E00E9482010E947A014A
S11303800E949E0108958091C6000895CF93DF9343
S1130390EC018BEA91E00E9482010E947A01CE0175
S11303A00E94A501DF91CF91089587EC91E00E940E
S11303B082010E947A01089584EE91E00E948201F4
S11103C00E947A010E949E010895F894FFCFD6
S11303CE526F6A6F00566572646500417A756C00EF
S11303DE53656C656363696F6E65202752272C2005
S11303EE2772272C202747272C202767272C2027E6
S11303FE4227206F202762272070617261206D6F63
S113040E64696669636172206C6F7320636F6C6FCD
S113041E7265732064656C204C45442C207920272A
S113042E5327206F20277327207061726120646523
S113043E6A6172206465206D6F64696669636172B6
S113044E20636F6C6F7265732E200D0A002E0D0AD9
S113045E004269656E76656E69646F20616C207307
S113046E697374656D612E200D0A00457374617392
S113047E206D6F6469666963616E646F20656C20BC
S113048E636F6C6F7220004D6F646966696361639C
S113049E69F36E2064657361637469766164612EB9
S11304AE200D0A004361726163746572206E6F20C1
S10F04BE76616C69646F2E200D0A00004A
S9030000FC
